:020000040000FA
:040000008031132810
:100008007E1480310B1E09280A2811288B1C0D2804
:100018000E2811288E31EC2680317E10090080319F
:100028001528F001F101F201F301F401A030840078
:100038000030850025308E31F12680317E10200079
:1000480085313B2D2000C8003B08CF003C08D0007C
:100058003D08D1003E08D2003F08D3004008D40034
:100068004108D5004208D6004F308600003087008E
:10007800473FC300C31B41284328013044280030B0
:100088002000C400C5014408CD004508CE004D0835
:100098004E040319502851286F28CF09D009D109D7
:1000A800D209D309D409D509D609CF0A031D6F2867
:1000B800D00A031D6F28D10A031D6F28D20A031D19
:1000C8006F28D30A031D6F28D40A031D6F28D50A89
:1000D800031D6F28D60AF11B722873287728FD3074
:1000E800F205FF30F3057108803A2000C300803024
:1000F8004302031D812801307002031884288528D3
:100108008B2801302000C9000030CA0090287108EF
:100118002000CA007008C900210023082000CC0074
:10012800210022082000CB004D084E04031D9D2805
:100138009E28A228721DA128A228A628FF30CB0736
:10014800FF30CC3D1F30D7000030D8002100C4015B
:100158001529FF302000D707FF30D83D0A30A0000E
:10016800A101A201A301A401A501A601A7014F08AD
:10017800A8005008A9005108AA005208AB0053086B
:10018800AC005408AD005508AE005608AF008231E7
:100198008D22803120002108B4002008B300873167
:1001A800E227803120003308303EC3005708A53EBF
:1001B8008600870143088100FF30C907FF30CA3D28
:1001C800FF30CB07FF30CC3D0A30A000A101A201CF
:1001D800A301A401A501A601A7014F08A800500882
:1001E800A9005108AA005208AB005308AC005408F3
:1001F800AD005508AE005608AF0081318821803126
:1002080020002008CF002108D0002208D1002308B0
:10021800D2002408D3002508D4002608D5002708D2
:10022800D60020005808803AC30080304302031DDE
:100238001F2901305702031C222923294F29200096
:100248004F085004510452045304540455045604EE
:10025800031D2F293029AD284A08803AC300803071
:100268004302031D39290130490203183C293D295D
:10027800AD2820004C08803AC30080304302031D9B
:10028800472901304B02031C4A294B294F29F218F0
:100298004E294F29AD2820004D084E04031D55292D
:1002A80056295A29721D59295A297529FF30D70705
:1002B800FF30D83D4D084E04031D63296429692980
:1002C8002B30C6000030C7006D292D30C600003025
:1002D800C7004608C3005708A53E860087014308A3
:1002E80081005708A53EC3004308B2004C08B4007B
:1002F8004B08B3004808863118268031200033089F
:10030800BC003208BB0008002000B2012030860083
:1003180000308700473FB000B01F93299429B629C1
:100328002000A009A109A209A309A409A509A609F1
:10033800A709A00A031DB329A10A031DB329A20A0C
:10034800031DB329A30A031DB329A40A031DB32956
:10035800A50A031DB329A60A031DB329A70A20006D
:10036800B201B20A2830860000308700473F2000DB
:10037800B000B01FC029C129E5292000A809A90992
:10038800AA09AB09AC09AD09AE09AF09A80A031D52
:10039800E029A90A031DE029AA0A031DE029AB0ADE
:1003A800031DE029AC0A031DE029AD0A031DE0295D
:1003B800AE0A031DE029AF0A01302000B000300862
:1003C800B206333086000030870008302000B000C5
:1003D80000301E00B00BED2920082104220423045C
:1003E80024042504260427040319FB29FC29582A78
:1003F800B101B10A0B2AA035A10DA20DA30DA40DC0
:10040800A50DA60DA70D0130B0003008B107A71F34
:100418000E2A0F2AFF29B335B40DB50DB60DB70D49
:10042800B80DB90DBA0D27082F02031D352A260865
:100438002E02031D352A25082D02031D352A2408FE
:100448002C02031D352A23082B02031D352A2208F6
:100458002A02031D352A21082902031D352A2008EE
:100468002802031C382A392A4A2A2008A802210807
:10047800A93B2208AA3B2308AB3B2408AC3B250830
:10048800AD3B2608AE3B2708AF3B3314A736A60C76
:10049800A50CA40CA30CA20CA10CA00C0130B10259
:1004A800031D572A582A0F2A320803195C2A5D2A85
:1004B8007B2AB309B409B509B609B709B809B90956
:1004C800BA09B30A031D7B2AB40A031D7B2AB50A9D
:1004D800031D7B2AB60A031D7B2AB70A031D7B2A44
:1004E800B80A031D7B2AB90A031D7B2ABA0A200011
:1004F8003308A0003408A1003508A2003608A3007C
:100508003708A4003808A5003908A6003A08A7004B
:1005180008002000B2012830860000308700473FDD
:10052800B000B01F982A992ABB2A2000A809A90957
:10053800AA09AB09AC09AD09AE09AF09A80A031DA0
:10054800B82AA90A031DB82AAA0A031DB82AAB0AA1
:10055800031DB82AAC0A031DB82AAD0A031DB82A20
:10056800AE0A031DB82AAF0A2000B201B20A203031
:10057800860000308700473F2000B000B01FC52A22
:10058800C62AE52A2000A009A109A209A309A409ED
:10059800A509A609A709A00A031DE52AA10A031DA2
:1005A800E52AA20A031DE52AA30A031DE52AA40ACF
:1005B800031DE52AA50A031DE52AA60A031DE52A47
:1005C800A70A200020082104220423042404250467
:1005D800260427040319F12AF22A452BB101B10A8E
:1005E800012BA035A10DA20DA30DA40DA50DA60DDF
:1005F800A70D0130B0003008B107A71F042B052B49
:10060800F52A27082F02031D232B26082E02031D77
:10061800232B25082D02031D232B24082C02031D40
:10062800232B23082B02031D232B22082A02031D38
:10063800232B21082902031D232B20082802031C31
:10064800262B272B372B2008A8022108A93B220894
:10065800AA3B2308AB3B2408AC3B2508AD3B260846
:10066800AE3B2708AF3BA736A60CA50CA40CA30CE1
:10067800A20CA10CA00C0130B102031D442B452B88
:10068800052B32080319492B4A2B682BA809A909FD
:10069800AA09AB09AC09AD09AE09AF09A80A031D3F
:1006A800682BA90A031D682BAA0A031D682BAB0A2D
:1006B800031D682BAC0A031D682BAD0A031D682BAC
:1006C800AE0A031D682BAF0A20002808A0002908DD
:1006D800A1002A08A2002B08A3002C08A4002D08BA
:1006E800A5002E08A6002F08A700080022008E12D9
:1006F8002000A10101308F31912783312000A10111
:1007080004308F31912783314C302000B1003108FB
:10071800A10000308F319127833102302000B100D1
:100728003108A10005308F31912783310630200030
:10073800B1003108A10006308F31912783313F3055
:100748002000B1003108A10002308F319127833198
:100758000130323E860087010230323E8400850136
:1007680032302000B600B500803FC03FB1003108EC
:10077800B2000530B1003108AD00AE0132308F3122
:10078800CF2783310130323E860087010230323E66
:100798008400850130302000B600B500803FC03F9E
:1007A800B1003108B2000530B1003108AD00AE012A
:1007B800AE0A32308F31CF278331C3302000B100E9
:1007C8003108B200AD01AD0A0230B1003108AE0007
:1007D80032308F31CF278331C4302000B100310847
:1007E800B200AD01AD0A0330B1003108AE003230BD
:1007F8008F31CF278331C5302000B1003108B200D6
:10080800AD01AD0A0430B1003108AE0032308F318D
:10081800CF278331C6302000B1003108B200AD01C6
:10082800AD0A0530B1003108AE0032308F31CF2724
:10083800833120302000B1003108A10011308F3100
:100848009127833120302000B1003108A1001230F7
:100858008F319127833120302000B1003108A10069
:1008680013308F319127833120302000B1003108B7
:10087800A10014308F319127833120302000B1003E
:100888003108A10015308F319127833120302000A5
:10089800B1003108A10016308F3191278331F4015E
:1008A8004F302000B1003108A10000308F3191276E
:1008B800833122008E1608002000E80059088600BF
:1008C8008701403FDB00413FDC005B0884005C0897
:1008D80085001200253A031D722C732C172D590818
:1008E800860087010130810741310318810A210000
:1008F800A201A301F201F301FF30F000FF30F10083
:100908002000590886008701403FDB00413FDC009A
:100918005B0884005C0885001200643A0319952C72
:10092800962CA72C590886008701403FDB00413FE1
:10093800DC005B0884005C0885001200693A031D2E
:10094800A62CA72CE22C59088600870101308107C4
:1009580041310318810A5A0886008701010884007A
:10096800850102308107003FDB00013FDC005B08A6
:10097800E0005C08E100890D893B8909E200E30099
:10098800E400E500E600E7006008BB006108BC0081
:100998006208BD006308BE006408BF006508C000A7
:1009A8006608C1006708C2006808803126208431C3
:1009B80020003C08DA003B08D9003A2D5908860087
:1009C8008701403FDB00413FDC005B0884005C0896
:1009D80085001200253A031DF22CF32C0C2D590822
:1009E800860087010130810741310318810A2530CB
:1009F800A2000030A3006808DB005B08A400863171
:100A08006E26843101302000D9000030DA003A2DFA
:100A18005908860087010130810741310318810A8E
:100A2800D901DA013A2D590886008701403FDB00D9
:100A3800413FDC005B0884005C0885000008DD009D
:100A4800DE015D08A2005E08A3006808DF005F08F9
:100A5800A40086316E26843120005908860087015B
:100A68000130810741310318810A062D08008F31B2
:100A7800812785318B170B172100D101D201003056
:100A88008531BF258531EA302000A0000630A1005D
:100A98008F31202785318F31292785310230210078
:100AA800D0000430CF00BA30890B582DCF0B582D09
:100AB800D00B582D000083317A2385310230210074
:100AC800D0000430CF00BA30890B682DCF0B682DC9
:100AD800D00B682D00000B302100D0002630CF004D
:100AE8005D30890B752DCF0B752DD00B752D003210
:100AF800031022000E1C03140318832D862D2200D8
:100B08000E14882D22000E1003108E1C03140318D7
:100B18008E2D912D22008E14932D22008E100310FD
:100B28000E1D03140318992D9C2D22000E159E2DC1
:100B380022000E1100302100C8009030C900520870
:100B4800CB005108CA008F31B92785310130210007
:100B5800D1070030D23D0B302100D0002630CF0025
:100B68005D30890BB52DCF0BB52DD00BB52D0032CF
:100B78006F2D803113282000A3002400951AC52D5D
:100B8800C62D172E20002308A000A101A035A10D15
:100B9800A035A10D0E30200784009030213D85003E
:100BA80000082400940020002308A000A101A0351B
:100BB800A10DA035A10D0D30200784009030213DF6
:100BC8008500000824009500960120002308A00055
:100BD800A101A035A10DA035A10D0F30200784007B
:100BE8009030213D85000008240092002000230851
:100BF800A000A101A035A10DA035A10D103020073E
:100C080084009030213D85000008A200A20EA20DAC
:100C1800A20D21000D0820002206BF39220621005E
:100C28008D002400951608002000BA00721C1D2EA5
:100C38001E2E262E3A08B5003508AA00320887313C
:100C4800572786312000B41B2A2E2B2E302E34082D
:100C5800B9003308B800322EB801B901B601B7019E
:100C6800462E20302000A2000030A3003A08B5002C
:100C78003508A40086316E26863101302000B6077B
:100C88000030B73D3708803AB5003908803A350258
:100C9800031D502E38083602031C532E542E352EB1
:100CA8007218572E582E612E20003A08B5003508C4
:100CB800AA003208873157278631200032088F3141
:100CC800E6278631200038082007B2003908213D80
:100CD800B3000800200024080319732E742E792EFF
:100CE8002408031D782E792E7E2E22088E31FE26AA
:100CF8008631AE2E2408033E8600870116000104C3
:100D08000319872E882EA52E2408033E8600870106
:100D1800403FA500413FA600240A86008701403FC6
:100D2800A700413FA8002808803AA9002608803A71
:100D38002902031DA12E250827020318A42EA52E7B
:100D4800AE2E2000240A8600870101308107413138
:100D58000318810A080022008C018D018E013730AA
:100D680021008C0090308D0088308E008830230060
:100D78008E008D0113308C0024008D018C018E01B2
:100D88002100951725008C018D018E013730260032
:100D98008C00F0308D00FF308E003F3027008C0033
:100DA800F0308D00FF308E000F303C009000023094
:100DB800A4000C30A10010303D009E0011309D00B1
:100DC8001230A4000E303C00A000080022000E13D0
:100DD800FF308F313C278631F8007808F90022006F
:100DE8000E17F91EF82EF92E022F2030F800780879
:100DF800F60007308F3171278631F401791E052FEF
:100E0800062F162F1030F8007808F60007308F31BB
:100E18007127863122008E160D30890B112F0000A4
:100E280022008E12791C192F1A2F222F22000E133E
:100E3800E1308F313C27863122000E17080021004F
:100E4800C50020006A082100C700200069082100A9
:100E5800C600A001A101462FC6302000EC006C0896
:100E6800D9006B08ED006D08DA00210045088431CF
:100E780060248731200059082100A00720005A0863
:100E88002100A13D46088400470885001200031D83
:100E98004E2F4F2F302F21082000EA002100200874
:100EA8002000E90008002000B100AF01B0016F2F59
:100EB8002E08AB00AC012B08A2002C08A3002A08BE
:100EC800AD002D08A40086316E2687310130200040
:100ED800AF070030B03D2F083107AB002B08860064
:100EE80087010108AC002C08AE002E08031D7D2FD9
:100EF8007E2F5C2F0800083023009F0090309D0053
:100F080024309E00A0309B0001309C00003020005F
:100F1800A0000030A1008F310E278731003020005B
:100F2800A0000030A1008F31172787310030200042
:100F3800A0000030A1008F31052787312100A401CE
:100F4800080020002208A6002108A500B82F2508BF
:100F580086002608870001088F3163278731013012
:100F68002000A5070030A63D0130A3020030A43BB5
:100F7800230A031DC32F240A031DC32FC42FAB2F1D
:100F880008002000AC0022000E1320002C081F3996
:100F980020388F316327873120002808A2002708CE
:100FA800A1002908AA00AB012A08A3002B08A40065
:100FB8008731A527873122000E1708002000340842
:100FC800803AB50080303502031DEC2F0130330222
:100FD8000318EF2FF02FFD2F20003309B500340937
:100FE800B600B50A0319B60A3508B3003608B400C6
:060FF800FD2F08000800B7
:101DD8008B108F3149278E31080064008001013152
:101DE800890BF22E003478302100990098012200E6
:101DF800960108002000A10021088F3132278E317A
:101E08000800200021082100D60020002008210019
:101E1800D5000800200021082100DA002000200851
:101E28002100D9000800200021082100D800200046
:101E380020082100D7000800200021082100D40034
:101E4800200020082100D300080021008E120E1364
:101E580023000E1322008E120E1708002000A00087
:101E6800101E372F382F342F200823009A0008001F
:101E7800F5007508240091002000901D442F452F7F
:101E8800402F901124001108080021005308540421
:101E980003194F2F502F552F54088A0053080A0052
:101EA8008F3108008B1021001513FE302000A00090
:101EB8000730A1008F3120278F310B160800200032
:101EC800A0002008240091002000901D6C2F6D2F89
:101ED800682F9011240011080800F70022000E1343
:101EE80077081F3920388F313C278F3176088F319A
:101EF8003C278F3122000E1708008F31A4278F311D
:101F08008631AF268F318E31F7268F318F315627A4
:101F18008F3187317F278F3108002000A2002200EF
:101F28000E13200022081F3920388F3163278F3184
:101F3800200021088F3163278F3122000E170800F7
:101F48000E303C00A0000C30A10010303D009E0077
:101F580011309D00C030240094009501013092009A
:101F680021000D13240095120800CA302000EE004D
:101F78006E082100CE0049082000EA002100480828
:101F88002000E900CE30EE006E08EB00003087310B
:101F980023278F3108002000B00006302E02031CD2
:101FA800D62FD72FD82FE52F3008A7000030A8004C
:101FB8002D08AF002F08A9002E080A3E8731C52733
:101FC8008F3108002000A4002408A2002208A300E2
:101FD800F12F0130A2002208A407240886008701F7
:101FE8000108031DF82FF92FED2F23082402A00064
:101FF800A101A01BA103080063346F3475346E344B
:10200800743420343D342034253464340D340A3497
:0A20180000340034C03401340034F9
:020000040001F9
:06000E00FC3FFF3E9F3F96
:00000001FF
