:020000040000FA
:040000008031132810
:100008007E1480310B1E09280A2811288B1C0D2804
:100018000E2811288331A52380317E1009008031F4
:100028001528F701F8017E102000813108292000E9
:10003800B2000230B0003008A10005308231F5224C
:10004800803106302000B0003008A100063082312F
:10005800F52280314C302000B0003008A10000307B
:100068008231F52280312000A10101308231F52250
:10007800803129302000B0003008A10004308231DE
:10008800F5228031E0280130333E860087010230B6
:10009800333E840085013230803FC03FB0003008D5
:1000A800B3000430333E860087013230C03FB000D1
:1000B8003008B600333083313A23803133302000A2
:1000C800AD000030AE00833108238031FD280130B7
:1000D800333E860087010230333E8400850130308C
:1000E800B700B600803FC03FB0003008B3003330DF
:1000F80083313A23803162280230333E86008701FB
:100108000330333E840085013030B700803FC03F64
:10011800B0003008B400C330B0003008B30033304A
:1001280083313A23803162280230333E86008701CA
:100138000330333E840085013030B700803FC03F34
:10014800B0003008B400C430B0003008B300333019
:1001580083313A23803162280230333E860087019A
:100168000330333E840085013030B700803FC03F04
:10017800B0003008B400C530B0003008B3003330E8
:1001880083313A23803162280230333E860087016A
:100198000330333E840085013030B700803FC03FD4
:1001A800B0003008B400C630B0003008B3003330B7
:1001B80083313A238031622820003208B000B1012F
:1001C8003108003A0319E928FD283008003A0319D4
:1001D8004728013A03196B28033A03198028013A82
:1001E80003199828073A0319B028013A0319C828AF
:1001F800FD28F7014E302000B0003008A100003083
:100208008231F5228031080083311A2381318B171E
:100218000B17003081317521813145302000A00055
:100228000230A10083318D23813183317D238131D7
:1002380002302000B9000430B800BA30890B2229F6
:10024800B80B2229B90B22290000003080311B206D
:10025800813102302000B9000430B800BA30890B6F
:100268003329B80B3329B90B332900006330200038
:10027800B8003808BF004230B8003808C000203045
:100288002000B8003808A7003A308131CE218131EA
:100298000B302000B9002630B8005D30890B522998
:1002A800B80B5229B90B52290032031022000E1C38
:1002B800031403186029632922000E1465292200FB
:1002C8000E100B302000B9002630B8005D30890BC5
:1002D8006B29B80B6B29B90B6B2900324329803184
:1002E80013282000A3002400951A7B297C29CD29F6
:1002F80020002308A000A101A035A10DA035A10D63
:10030800AB30200784008330213D8500000824009D
:10031800940020002308A000A101A035A10DA0355C
:10032800A10DAA30200784008330213D85000008F4
:1003380024009500960120002308A000A101A03503
:10034800A10DA035A10DAC30200784008330213DDC
:10035800850000082400920020002308A000A101C5
:10036800A035A10DA035A10DAD3020078400833044
:10037800213D85000008A200A20EA20DA20D2100B9
:100388000D0820002206BF39220621008D00240016
:10039800951608002000AA007708031DD429D5293E
:1003A800D02922008E1201302000A8002808F7006A
:1003B8004E30A8002808A10000308231F522813192
:1003C80022000E13E13083314923813122000E17B8
:1003D8000E13A03083314923813120002A08A1005F
:1003E8000030A2002708A800A9012808A3002908AE
:1003F800A4008231A322813122000E178E160D30FF
:10040800890B042A000022008E12080022008C01A9
:100418008D018E01373021008C0090308D0088309E
:100428008E00883023008E008D0113308C0024004C
:100438008D018C018E012100951725008C018D01FD
:100448008E01373026008C00F0308D00FF308E0092
:100458003F3027008C00F0308D00FF308E000F30C9
:100468003C0090000230A4000C30A10010303D0088
:100478009E0011309D001230A4000E303C00A000F8
:10048800080022000E13FF30833164238231F30009
:100498007308F40022000E17F41E532A542A5D2A0A
:1004A8002030F3007308F100073083312A238231AA
:1004B800F701741E602A612A712A1030F30073084C
:1004C800F100073083312A23823122008E160D3045
:1004D800890B6C2A000022008E12741C742A752A5B
:1004E8007D2A22000E13E1308331642382312200F9
:1004F8000E170800083023009F0090309D0024301C
:100508009E00A0309B0001309C0000302000A0001D
:100518000030A10083319923823100302000A000EF
:100528000030A10083319323823100302000A000E5
:100538000030A10083319F238231F8010800200098
:100548002208A6002108A500B62A25088600260844
:100558008700010883314923823101302000A50733
:100568000030A63D0130A3020030A43B230A031D3E
:10057800C12A240A031DC12AC22AA92A0800200068
:10058800AC0022000E1320002C081F3920388331BC
:100598004923823120002808A2002708A100290841
:1005A800AA00AB012A08A3002B08A4008231A322C9
:1005B800823122000E1708000E303C00A0000C30DB
:1005C800A10010303D009E0011309D00C030240075
:1005D800940095010130920021000D13240095121A
:1005E80008002000A20022000E13200022081F3954
:1005F800203883314923823120002108833149235F
:10060800823122000E17080022008E1220002E08C8
:10061800A8002D08A7000530AF002F08A9000A3050
:100628008231C322833122008E1608008231E022F3
:10063800833182310A2283318331862383318331A6
:100648005723833182317E2283310800F200220051
:100658000E1372081F3920388331642383317108DF
:1006680083316423833122000E1708002000AE0076
:100678002E08A7000030A8000530AD002D08A900FD
:1006880010308231C322833108002000A0002008E6
:10069800240091002000901D522B532B4E2B9011BB
:1006A8002400110808008B1021001513AE3020001B
:1006B800A0000330A10083318D2383310B1608007D
:1006C800F0007008240091002000901D6C2B6D2B09
:1006D800682B901124001108080075087604031986
:1006E800762B772B7C2B76088A0075080A008331D5
:1006F800080021008E120E1323000E1322008E1202
:100708000E17080078302100990098012200960100
:10071800080020002108F6002008F5000800200045
:100728002108DD002008DC00080020002108DF0087
:100738002008DE00080020002108DB002008DA007D
:1007480008008B1083317123833108000034C034D2
:060758000134003408002A
:020000040001F9
:06000E00FC3FFF3E9F3F96
:00000001FF
